:100000000C9461000C947E000C947E000C947E0095
:100010000C947E000C947E000C947E000C947E0068
:100020000C947E000C947E000C947E000C947E0058
:100030000C947E000C947E000C947E000C947E0048
:100040000C940D020C947E000C947E000C947E00A7
:100050000C947E000C947E000C947E000C947E0028
:100060000C947E000C947E00000000002400270009
:100070002A0000000000250028002B0000000000DE
:1000800023002600290004040404040404040202DA
:100090000202020203030303030301020408102007
:1000A0004080010204081020010204081020000012
:1000B0000008000201000003040700000000000027
:1000C000000011241FBECFEFD8E0DEBFCDBF11E08E
:1000D000A0E0B1E0ECEAF6E002C005900D92A2309B
:1000E000B107D9F721E0A2E0B1E001C01D92AD3027
:1000F000B207E1F70E9457020C9454030C940000DD
:10010000833081F028F4813099F08230A9F008958D
:100110008730A9F08830C9F08430B1F48091800034
:100120008F7D03C0809180008F7780938000089539
:1001300084B58F7784BD089584B58F7DFBCF809182
:10014000B0008F778093B00008958091B0008F7DCC
:10015000F9CFCF93DF93282F30E0F901E255FF4F1D
:100160008491F901E656FF4FD491F901EA57FF4F08
:10017000C491CC23A1F081110E948000EC2FF0E00B
:10018000EE0FFF1FE458FF4FA591B491EC91ED23C2
:1001900081E090E009F480E0DF91CF91089580E064
:1001A00090E0FACF1F93CF93DF93282F30E0F9012F
:1001B000E255FF4F8491F901E656FF4FD491F901C2
:1001C000EA57FF4FC491CC23A9F0162F81110E944A
:1001D0008000EC2FF0E0EE0FFF1FEE58FF4FA591CF
:1001E000B4918FB7F894EC91111108C0D095DE232B
:1001F000DC938FBFDF91CF911F910895DE2BF8CF55
:10020000CF93DF9390E0FC01E656FF4F24918A578D
:100210009F4FFC0184918823D1F090E0880F991FB3
:10022000FC01E859FF4FA591B491FC01EE58FF4F36
:10023000C591D49161110EC09FB7F8948C91E22FB3
:10024000E0958E238C932881E223E8839FBFDF9182
:10025000CF9108958FB7F894EC91E22BEC938FBF78
:10026000F6CF3FB7F8948091070190910801A091D3
:100270000901B0910A0126B5A89B05C02F3F19F0CE
:100280000196A11DB11D3FBFBA2FA92F982F882716
:10029000BC01CD01620F711D811D911D42E0660FF1
:1002A000771F881F991F4A95D1F708958F929F92C3
:1002B000AF92BF92CF92DF92EF92FF924B015C011F
:1002C0000E9431016B017C010E9431016C197D0992
:1002D0008E099F09683E734081059105A8F321E0CE
:1002E000821A9108A108B10888EEC80E83E0D81ED2
:1002F000E11CF11C81149104A104B10429F7FF90C1
:10030000EF90DF90CF90BF90AF909F908F90089527
:10031000CF92DF92EF92FF920F931F93CF93DF93D1
:100320006B010197EC01CC0FDD1FC80FD91F7E01B7
:1003300082E0E80EF11C60E08E2D0E94D2008E015A
:100340000D5F1F4F60E0802F0E94D200249660E076
:100350008C2F0E94D20061E082E0C816D10479F0AF
:1003600083E0C816D10469F08E2DDF91CF911F91E3
:100370000F91FF90EF90DF90CF900C94D200802FE0
:10038000F4CF8C2FF2CF0F931F93CF93DF938C0179
:10039000EB0162E070E00E94880162E070E0CE0153
:1003A0000E94880164EF71E080E090E00E945601B5
:1003B00063E070E0C8010E94880161E070E0CE0156
:1003C0000E94880168EE73E080E090E0DF91CF91B9
:1003D0001F910F910C9456018EE00E94A90081306C
:1003E0009105D1F08FE00E94A900019769F080E1AA
:1003F0000E94A900019759F081E10E94A90001978C
:1004000049F090E080E0089582E090E0089583E074
:1004100090E0089584E090E008951F920F920FB647
:100420000F9211242F933F938F939F93AF93BF937A
:100430008091030190910401A0910501B091060102
:100440003091020123E0230F2D3758F50196A11DAD
:10045000B11D209302018093030190930401A093A6
:100460000501B09306018091070190910801A091C8
:100470000901B0910A010196A11DB11D80930701E8
:1004800090930801A0930901B0930A01BF91AF9125
:100490009F918F913F912F910F900FBE0F901F90C2
:1004A000189526E8230F0296A11DB11DD2CF78948E
:1004B00084B5826084BD84B5816084BD85B5826069
:1004C00085BD85B5816085BD80916E00816080931A
:1004D0006E00109281008091810082608093810083
:1004E0008091810081608093810080918000816093
:1004F000809380008091B10084608093B1008091EE
:10050000B00081608093B00080917A008460809315
:100510007A0080917A00826080937A0080917A00DC
:10052000816080937A0080917A00806880937A005D
:100530001092C100C2E061E08C2F0E94000160E0D7
:100540008C2F0E94D200CF5FCE30A9F760E08EE002
:100550000E94000160E08FE00E94000160E080E105
:100560000E94000160E081E10E9400010E94EC0114
:10057000EC0190930C0180930B0101E010E0C01797
:10058000D10729F063E070E0C8010E9488010F5F85
:100590001F4F0530110599F761E070E01C161D062C
:1005A0000CF04CC0CE010E948801D0930101C09391
:1005B000000164EF71E080E090E00E94560184E069
:1005C000E82EF12C00E010E00E94EC01EC0180919B
:1005D0000B0190910C01C817D90791F01816190654
:1005E00094F5BE011C161D062CF0BC016370772724
:1005F0006F5F7F4F0E94C301D0930C01C0930B012A
:1006000080910B0190910C01892B91F420910001B4
:1006100030910101C901B7010E942C03EC01219620
:10062000BE01C9010E94C301D0930101C093000122
:100630000115110549F20E940000C6CF81E090E04B
:100640000E948801B6CF1C161D06B4F6BE0180912B
:10065000000190910101CECF97FB072E16F4009474
:1006600007D077FD09D00E94400307FC05D03EF477
:10067000909581959F4F0895709561957F4F08954E
:10068000AA1BBB1B51E107C0AA1FBB1FA617B707B8
:1006900010F0A61BB70B881F991F5A95A9F78095D4
:0C06A0009095BC01CD010895F894FFCFA7
:0206AC0001004B
:00000001FF
